{
  "_format": "hh-sol-artifact-1",
  "contractName": "SampleERC1155",
  "sourceName": "contracts/SampleERC1155.sol",
  "abi": [
    {
      "inputs": [
        {
          "internalType": "string",
          "name": "_name",
          "type": "string"
        },
        {
          "internalType": "string",
          "name": "_symbol",
          "type": "string"
        }
      ],
      "stateMutability": "nonpayable",
      "type": "constructor"
    },
    {
      "anonymous": false,
      "inputs": [
        {
          "indexed": true,
          "internalType": "address",
          "name": "account",
          "type": "address"
        },
        {
          "indexed": true,
          "internalType": "address",
          "name": "operator",
          "type": "address"
        },
        {
          "indexed": false,
          "internalType": "bool",
          "name": "approved",
          "type": "bool"
        }
      ],
      "name": "ApprovalForAll",
      "type": "event"
    },
    {
      "anonymous": false,
      "inputs": [
        {
          "indexed": true,
          "internalType": "address",
          "name": "previousOwner",
          "type": "address"
        },
        {
          "indexed": true,
          "internalType": "address",
          "name": "newOwner",
          "type": "address"
        }
      ],
      "name": "OwnershipTransferred",
      "type": "event"
    },
    {
      "anonymous": false,
      "inputs": [
        {
          "indexed": true,
          "internalType": "address",
          "name": "operator",
          "type": "address"
        },
        {
          "indexed": true,
          "internalType": "address",
          "name": "from",
          "type": "address"
        },
        {
          "indexed": true,
          "internalType": "address",
          "name": "to",
          "type": "address"
        },
        {
          "indexed": false,
          "internalType": "uint256[]",
          "name": "ids",
          "type": "uint256[]"
        },
        {
          "indexed": false,
          "internalType": "uint256[]",
          "name": "values",
          "type": "uint256[]"
        }
      ],
      "name": "TransferBatch",
      "type": "event"
    },
    {
      "anonymous": false,
      "inputs": [
        {
          "indexed": true,
          "internalType": "address",
          "name": "operator",
          "type": "address"
        },
        {
          "indexed": true,
          "internalType": "address",
          "name": "from",
          "type": "address"
        },
        {
          "indexed": true,
          "internalType": "address",
          "name": "to",
          "type": "address"
        },
        {
          "indexed": false,
          "internalType": "uint256",
          "name": "id",
          "type": "uint256"
        },
        {
          "indexed": false,
          "internalType": "uint256",
          "name": "value",
          "type": "uint256"
        }
      ],
      "name": "TransferSingle",
      "type": "event"
    },
    {
      "anonymous": false,
      "inputs": [
        {
          "indexed": false,
          "internalType": "string",
          "name": "value",
          "type": "string"
        },
        {
          "indexed": true,
          "internalType": "uint256",
          "name": "id",
          "type": "uint256"
        }
      ],
      "name": "URI",
      "type": "event"
    },
    {
      "inputs": [
        {
          "internalType": "address",
          "name": "account",
          "type": "address"
        },
        {
          "internalType": "uint256",
          "name": "id",
          "type": "uint256"
        }
      ],
      "name": "balanceOf",
      "outputs": [
        {
          "internalType": "uint256",
          "name": "",
          "type": "uint256"
        }
      ],
      "stateMutability": "view",
      "type": "function"
    },
    {
      "inputs": [
        {
          "internalType": "address[]",
          "name": "accounts",
          "type": "address[]"
        },
        {
          "internalType": "uint256[]",
          "name": "ids",
          "type": "uint256[]"
        }
      ],
      "name": "balanceOfBatch",
      "outputs": [
        {
          "internalType": "uint256[]",
          "name": "",
          "type": "uint256[]"
        }
      ],
      "stateMutability": "view",
      "type": "function"
    },
    {
      "inputs": [
        {
          "internalType": "uint256",
          "name": "id",
          "type": "uint256"
        },
        {
          "internalType": "uint256",
          "name": "amount",
          "type": "uint256"
        }
      ],
      "name": "burn",
      "outputs": [],
      "stateMutability": "nonpayable",
      "type": "function"
    },
    {
      "inputs": [
        {
          "internalType": "uint256[]",
          "name": "id",
          "type": "uint256[]"
        },
        {
          "internalType": "uint256[]",
          "name": "amount",
          "type": "uint256[]"
        }
      ],
      "name": "burnBatch",
      "outputs": [],
      "stateMutability": "nonpayable",
      "type": "function"
    },
    {
      "inputs": [
        {
          "internalType": "address",
          "name": "account",
          "type": "address"
        },
        {
          "internalType": "address",
          "name": "operator",
          "type": "address"
        }
      ],
      "name": "isApprovedForAll",
      "outputs": [
        {
          "internalType": "bool",
          "name": "",
          "type": "bool"
        }
      ],
      "stateMutability": "view",
      "type": "function"
    },
    {
      "inputs": [
        {
          "internalType": "address",
          "name": "account",
          "type": "address"
        },
        {
          "internalType": "uint256",
          "name": "id",
          "type": "uint256"
        },
        {
          "internalType": "uint256",
          "name": "amount",
          "type": "uint256"
        },
        {
          "internalType": "string",
          "name": "tokenUri",
          "type": "string"
        },
        {
          "internalType": "bytes",
          "name": "data",
          "type": "bytes"
        }
      ],
      "name": "mint",
      "outputs": [],
      "stateMutability": "nonpayable",
      "type": "function"
    },
    {
      "inputs": [
        {
          "internalType": "uint256",
          "name": "id",
          "type": "uint256"
        },
        {
          "internalType": "string",
          "name": "tokenUri",
          "type": "string"
        },
        {
          "internalType": "address[]",
          "name": "account",
          "type": "address[]"
        },
        {
          "internalType": "uint256[]",
          "name": "amount",
          "type": "uint256[]"
        },
        {
          "internalType": "bytes[]",
          "name": "data",
          "type": "bytes[]"
        }
      ],
      "name": "mintByAddressBatch",
      "outputs": [],
      "stateMutability": "nonpayable",
      "type": "function"
    },
    {
      "inputs": [
        {
          "internalType": "address",
          "name": "_to",
          "type": "address"
        },
        {
          "internalType": "uint256[]",
          "name": "id",
          "type": "uint256[]"
        },
        {
          "internalType": "uint256[]",
          "name": "amount",
          "type": "uint256[]"
        },
        {
          "internalType": "string[]",
          "name": "tokenUri",
          "type": "string[]"
        },
        {
          "internalType": "bytes",
          "name": "data",
          "type": "bytes"
        }
      ],
      "name": "mintByBatchId",
      "outputs": [],
      "stateMutability": "nonpayable",
      "type": "function"
    },
    {
      "inputs": [],
      "name": "name",
      "outputs": [
        {
          "internalType": "string",
          "name": "",
          "type": "string"
        }
      ],
      "stateMutability": "view",
      "type": "function"
    },
    {
      "inputs": [],
      "name": "owner",
      "outputs": [
        {
          "internalType": "address",
          "name": "",
          "type": "address"
        }
      ],
      "stateMutability": "view",
      "type": "function"
    },
    {
      "inputs": [],
      "name": "renounceOwnership",
      "outputs": [],
      "stateMutability": "nonpayable",
      "type": "function"
    },
    {
      "inputs": [
        {
          "internalType": "address",
          "name": "from",
          "type": "address"
        },
        {
          "internalType": "address",
          "name": "to",
          "type": "address"
        },
        {
          "internalType": "uint256[]",
          "name": "ids",
          "type": "uint256[]"
        },
        {
          "internalType": "uint256[]",
          "name": "amounts",
          "type": "uint256[]"
        },
        {
          "internalType": "bytes",
          "name": "data",
          "type": "bytes"
        }
      ],
      "name": "safeBatchTransferFrom",
      "outputs": [],
      "stateMutability": "nonpayable",
      "type": "function"
    },
    {
      "inputs": [
        {
          "internalType": "address",
          "name": "from",
          "type": "address"
        },
        {
          "internalType": "address",
          "name": "to",
          "type": "address"
        },
        {
          "internalType": "uint256",
          "name": "id",
          "type": "uint256"
        },
        {
          "internalType": "uint256",
          "name": "amount",
          "type": "uint256"
        },
        {
          "internalType": "bytes",
          "name": "data",
          "type": "bytes"
        }
      ],
      "name": "safeTransferFrom",
      "outputs": [],
      "stateMutability": "nonpayable",
      "type": "function"
    },
    {
      "inputs": [
        {
          "internalType": "address",
          "name": "operator",
          "type": "address"
        },
        {
          "internalType": "bool",
          "name": "approved",
          "type": "bool"
        }
      ],
      "name": "setApprovalForAll",
      "outputs": [],
      "stateMutability": "nonpayable",
      "type": "function"
    },
    {
      "inputs": [
        {
          "internalType": "uint256",
          "name": "id",
          "type": "uint256"
        },
        {
          "internalType": "string",
          "name": "tokenUri",
          "type": "string"
        }
      ],
      "name": "setUri",
      "outputs": [],
      "stateMutability": "nonpayable",
      "type": "function"
    },
    {
      "inputs": [
        {
          "internalType": "bytes4",
          "name": "interfaceId",
          "type": "bytes4"
        }
      ],
      "name": "supportsInterface",
      "outputs": [
        {
          "internalType": "bool",
          "name": "",
          "type": "bool"
        }
      ],
      "stateMutability": "view",
      "type": "function"
    },
    {
      "inputs": [],
      "name": "symbol",
      "outputs": [
        {
          "internalType": "string",
          "name": "",
          "type": "string"
        }
      ],
      "stateMutability": "view",
      "type": "function"
    },
    {
      "inputs": [
        {
          "internalType": "uint256",
          "name": "",
          "type": "uint256"
        }
      ],
      "name": "totalSupply",
      "outputs": [
        {
          "internalType": "uint256",
          "name": "",
          "type": "uint256"
        }
      ],
      "stateMutability": "view",
      "type": "function"
    },
    {
      "inputs": [
        {
          "internalType": "address",
          "name": "newOwner",
          "type": "address"
        }
      ],
      "name": "transferOwnership",
      "outputs": [],
      "stateMutability": "nonpayable",
      "type": "function"
    },
    {
      "inputs": [
        {
          "internalType": "uint256",
          "name": "id",
          "type": "uint256"
        }
      ],
      "name": "uri",
      "outputs": [
        {
          "internalType": "string",
          "name": "",
          "type": "string"
        }
      ],
      "stateMutability": "view",
      "type": "function"
    }
  ],
  "bytecode": "0x60806040523480156200001157600080fd5b506040516200305038038062003050833981016040819052620000349162000238565b6040805160208101909152600081526200004e81620000c6565b50600380546001600160a01b0319163390811790915560405181906000907f8be0079c531659141344cd1fd0a4f28419497f9722a3daafe3b4186f6b6457e0908290a3508151620000a7906004906020850190620000df565b508051620000bd906005906020840190620000df565b505050620002f2565b8051620000db906002906020840190620000df565b5050565b828054620000ed906200029f565b90600052602060002090601f0160209004810192826200011157600085556200015c565b82601f106200012c57805160ff19168380011785556200015c565b828001600101855582156200015c579182015b828111156200015c5782518255916020019190600101906200013f565b506200016a9291506200016e565b5090565b5b808211156200016a57600081556001016200016f565b600082601f83011262000196578081fd5b81516001600160401b0380821115620001b357620001b3620002dc565b604051601f8301601f19908116603f01168101908282118183101715620001de57620001de620002dc565b81604052838152602092508683858801011115620001fa578485fd5b8491505b838210156200021d5785820183015181830184015290820190620001fe565b838211156200022e57848385830101525b9695505050505050565b600080604083850312156200024b578182fd5b82516001600160401b038082111562000262578384fd5b620002708683870162000185565b9350602085015191508082111562000286578283fd5b50620002958582860162000185565b9150509250929050565b600181811c90821680620002b457607f821691505b60208210811415620002d657634e487b7160e01b600052602260045260246000fd5b50919050565b634e487b7160e01b600052604160045260246000fd5b612d4e80620003026000396000f3fe608060405234801561001057600080fd5b506004361061016b5760003560e01c806383ca4b6f116100cd578063b390c0ab11610081578063e985e9c511610066578063e985e9c5146102eb578063f242432a14610327578063f2fde38b1461033a5761016b565b8063b390c0ab146102b8578063bd85b039146102cb5761016b565b806395d89b41116100b257806395d89b411461028a578063a22cb46514610292578063a4b645eb146102a55761016b565b806383ca4b6f146102575780638da5cb5b1461026a5761016b565b80634043b4ea11610124578063715018a611610109578063715018a614610229578063782f08ae146102315780637d9f0a2c146102445761016b565b80634043b4ea146101f65780634e1273f4146102095761016b565b806306fdde031161015557806306fdde03146101b95780630e89341c146101ce5780632eb2c2d6146101e15761016b565b8062fdd58e1461017057806301ffc9a714610196575b600080fd5b61018361017e366004612645565b61034d565b6040519081526020015b60405180910390f35b6101a96101a436600461275a565b6103f6565b604051901515815260200161018d565b6101c1610495565b60405161018d9190612b11565b6101c16101dc366004612792565b610523565b6101f46101ef3660046123fa565b6105c5565b005b6101f46102043660046127e5565b610918565b61021c6102173660046126c4565b610ba3565b60405161018d9190612ad0565b6101f4610d19565b6101f461023f3660046127aa565b610dcf565b6101f4610252366004612503565b610e52565b6101f4610265366004612725565b6110cd565b6102726111a7565b6040516001600160a01b03909116815260200161018d565b6101c16111b7565b6101f46102a036600461260b565b6111c4565b6101f46102b336600461266e565b6112bc565b6101f46102c63660046128f1565b611414565b6101836102d9366004612792565b60076020526000908152604090205481565b6101a96102f93660046123c8565b6001600160a01b03918216600090815260016020908152604080832093909416825291909152205460ff1690565b6101f46103353660046124a0565b611448565b6101f46103483660046123a7565b611686565b60006001600160a01b0383166103d05760405162461bcd60e51b815260206004820152602b60248201527f455243313135353a2062616c616e636520717565727920666f7220746865207a60448201527f65726f206164647265737300000000000000000000000000000000000000000060648201526084015b60405180910390fd5b506000908152602081815260408083206001600160a01b03949094168352929052205490565b60006001600160e01b031982167fd9b67a2600000000000000000000000000000000000000000000000000000000148061045957506001600160e01b031982167f0e89341c00000000000000000000000000000000000000000000000000000000145b8061048d57507f01ffc9a7000000000000000000000000000000000000000000000000000000006001600160e01b03198316145b90505b919050565b600480546104a290612ba7565b80601f01602080910402602001604051908101604052809291908181526020018280546104ce90612ba7565b801561051b5780601f106104f05761010080835404028352916020019161051b565b820191906000526020600020905b8154815290600101906020018083116104fe57829003601f168201915b505050505081565b600081815260066020526040902080546060919061054090612ba7565b80601f016020809104026020016040519081016040528092919081815260200182805461056c90612ba7565b80156105b95780601f1061058e576101008083540402835291602001916105b9565b820191906000526020600020905b81548152906001019060200180831161059c57829003601f168201915b50505050509050919050565b81518351146106275760405162461bcd60e51b815260206004820152602860248201527f455243313135353a2069647320616e6420616d6f756e7473206c656e677468206044820152670dad2e6dac2e8c6d60c31b60648201526084016103c7565b6001600160a01b03841661068b5760405162461bcd60e51b815260206004820152602560248201527f455243313135353a207472616e7366657220746f20746865207a65726f206164604482015264647265737360d81b60648201526084016103c7565b6001600160a01b0385163314806106a757506106a785336102f9565b6107195760405162461bcd60e51b815260206004820152603260248201527f455243313135353a207472616e736665722063616c6c6572206973206e6f742060448201527f6f776e6572206e6f7220617070726f766564000000000000000000000000000060648201526084016103c7565b3360005b84518110156108aa57600085828151811061074857634e487b7160e01b600052603260045260246000fd5b60200260200101519050600085838151811061077457634e487b7160e01b600052603260045260246000fd5b602090810291909101810151600084815280835260408082206001600160a01b038e1683529093529190912054909150818110156108075760405162461bcd60e51b815260206004820152602a60248201527f455243313135353a20696e73756666696369656e742062616c616e636520666f60448201526939103a3930b739b332b960b11b60648201526084016103c7565b6108118282612b60565b60008085815260200190815260200160002060008c6001600160a01b03166001600160a01b03168152602001908152602001600020819055508160008085815260200190815260200160002060008b6001600160a01b03166001600160a01b03168152602001908152602001600020600082825461088f9190612b48565b92505081905550505050806108a390612c0f565b905061071d565b50846001600160a01b0316866001600160a01b0316826001600160a01b03167f4a39dc06d4c0dbc64b70af90fd698a233a518aa5d07e595d983b8c0526c8f7fb87876040516108fa929190612ae3565b60405180910390a46109108187878787876117ca565b505050505050565b336109216111a7565b6001600160a01b0316146109775760405162461bcd60e51b815260206004820181905260248201527f4f776e61626c653a2063616c6c6572206973206e6f7420746865206f776e657260448201526064016103c7565b81518351148015610989575080518251145b6109d55760405162461bcd60e51b815260206004820152601460248201527f506172616d6574657273206e6f74206d6174636800000000000000000000000060448201526064016103c7565b60408051600081526020810180835281519020916109f591879101612978565b6040516020818303038152906040528051906020012014158015610a7357506000858152600660209081526040918290209151610a33929101612994565b6040516020818303038152906040528051906020012084604051602001610a5a9190612978565b6040516020818303038152906040528051906020012014155b15610a995760008581526006602090815260409091208551610a97928701906121a6565b505b6000805b8451811015610b6e57610b27858281518110610ac957634e487b7160e01b600052603260045260246000fd5b602002602001015188868481518110610af257634e487b7160e01b600052603260045260246000fd5b6020026020010151868581518110610b1a57634e487b7160e01b600052603260045260246000fd5b602002602001015161197f565b838181518110610b4757634e487b7160e01b600052603260045260246000fd5b602002602001015182610b5a9190612b48565b915080610b6681612c0f565b915050610a9d565b50600086815260076020526040902054610b89908290612b48565b600096875260076020526040909620959095555050505050565b60608151835114610c1c5760405162461bcd60e51b815260206004820152602960248201527f455243313135353a206163636f756e747320616e6420696473206c656e67746860448201527f206d69736d61746368000000000000000000000000000000000000000000000060648201526084016103c7565b6000835167ffffffffffffffff811115610c4657634e487b7160e01b600052604160045260246000fd5b604051908082528060200260200182016040528015610c6f578160200160208202803683370190505b50905060005b8451811015610d1157610cd6858281518110610ca157634e487b7160e01b600052603260045260246000fd5b6020026020010151858381518110610cc957634e487b7160e01b600052603260045260246000fd5b602002602001015161034d565b828281518110610cf657634e487b7160e01b600052603260045260246000fd5b6020908102919091010152610d0a81612c0f565b9050610c75565b509392505050565b33610d226111a7565b6001600160a01b031614610d785760405162461bcd60e51b815260206004820181905260248201527f4f776e61626c653a2063616c6c6572206973206e6f7420746865206f776e657260448201526064016103c7565b6003546040516000916001600160a01b0316907f8be0079c531659141344cd1fd0a4f28419497f9722a3daafe3b4186f6b6457e0908390a36003805473ffffffffffffffffffffffffffffffffffffffff19169055565b33610dd86111a7565b6001600160a01b031614610e2e5760405162461bcd60e51b815260206004820181905260248201527f4f776e61626c653a2063616c6c6572206973206e6f7420746865206f776e657260448201526064016103c7565b60008281526006602090815260409091208251610e4d928401906121a6565b505050565b33610e5b6111a7565b6001600160a01b031614610eb15760405162461bcd60e51b815260206004820181905260248201527f4f776e61626c653a2063616c6c6572206973206e6f7420746865206f776e657260448201526064016103c7565b8151835114610f025760405162461bcd60e51b815260206004820152601260248201527f506172616d746572206e6f74206d61746368000000000000000000000000000060448201526064016103c7565b60005b84518110156110b957604080516000815260208101918290525190208351849083908110610f4357634e487b7160e01b600052603260045260246000fd5b6020026020010151604051602001610f5b9190612978565b604051602081830303815290604052805190602001201415801561102b575060066000868381518110610f9e57634e487b7160e01b600052603260045260246000fd5b60200260200101518152602001908152602001600020604051602001610fc49190612994565b60405160208183030381529060405280519060200120838281518110610ffa57634e487b7160e01b600052603260045260246000fd5b60200260200101516040516020016110129190612978565b6040516020818303038152906040528051906020012014155b156110a75782818151811061105057634e487b7160e01b600052603260045260246000fd5b60200260200101516006600087848151811061107c57634e487b7160e01b600052603260045260246000fd5b6020026020010151815260200190815260200160002090805190602001906110a59291906121a6565b505b806110b181612c0f565b915050610f05565b506110c685858584611a80565b5050505050565b60005b8251811015611197578181815181106110f957634e487b7160e01b600052603260045260246000fd5b60200260200101516007600085848151811061112557634e487b7160e01b600052603260045260246000fd5b60200260200101518152602001908152602001600020546111469190612b60565b6007600085848151811061116a57634e487b7160e01b600052603260045260246000fd5b6020026020010151815260200190815260200160002081905550808061118f90612c0f565b9150506110d0565b506111a3338383611c62565b5050565b6003546001600160a01b03165b90565b600580546104a290612ba7565b336001600160a01b03831614156112435760405162461bcd60e51b815260206004820152602960248201527f455243313135353a2073657474696e6720617070726f76616c2073746174757360448201527f20666f722073656c66000000000000000000000000000000000000000000000060648201526084016103c7565b3360008181526001602090815260408083206001600160a01b0387168085529252909120805460ff1916841515179055906001600160a01b03167f17307eab39ab6107e8899845ad3d59bd9653f200f220920489ca2b5937696c31836040516112b0911515815260200190565b60405180910390a35050565b336112c56111a7565b6001600160a01b03161461131b5760405162461bcd60e51b815260206004820181905260248201527f4f776e61626c653a2063616c6c6572206973206e6f7420746865206f776e657260448201526064016103c7565b604080516000815260208101808352815190209161133b91859101612978565b60405160208183030381529060405280519060200120141580156113b957506000848152600660209081526040918290209151611379929101612994565b60405160208183030381529060405280519060200120826040516020016113a09190612978565b6040516020818303038152906040528051906020012014155b156113df57600084815260066020908152604090912083516113dd928501906121a6565b505b6000848152600760205260409020546113f9908490612b48565b6000858152600760205260409020556110c68585858461197f565b60008281526007602052604090205461142e908290612b60565b6000838152600760205260409020556111a3338383611ec0565b6001600160a01b0384166114ac5760405162461bcd60e51b815260206004820152602560248201527f455243313135353a207472616e7366657220746f20746865207a65726f206164604482015264647265737360d81b60648201526084016103c7565b6001600160a01b0385163314806114c857506114c885336102f9565b61153a5760405162461bcd60e51b815260206004820152602960248201527f455243313135353a2063616c6c6572206973206e6f74206f776e6572206e6f7260448201527f20617070726f766564000000000000000000000000000000000000000000000060648201526084016103c7565b3361155381878761154a88612042565b6110c688612042565b6000848152602081815260408083206001600160a01b038a168452909152902054838110156115d75760405162461bcd60e51b815260206004820152602a60248201527f455243313135353a20696e73756666696369656e742062616c616e636520666f60448201526939103a3930b739b332b960b11b60648201526084016103c7565b6115e18482612b60565b6000868152602081815260408083206001600160a01b038c8116855292528083209390935588168152908120805486929061161d908490612b48565b909155505060408051868152602081018690526001600160a01b03808916928a821692918616917fc3d58168c5ae7397731d063d5bbf3d657854427343f4c083240f7aacaa2d0f62910160405180910390a461167d82888888888861209b565b50505050505050565b3361168f6111a7565b6001600160a01b0316146116e55760405162461bcd60e51b815260206004820181905260248201527f4f776e61626c653a2063616c6c6572206973206e6f7420746865206f776e657260448201526064016103c7565b6001600160a01b0381166117615760405162461bcd60e51b815260206004820152602660248201527f4f776e61626c653a206e6577206f776e657220697320746865207a65726f206160448201527f646472657373000000000000000000000000000000000000000000000000000060648201526084016103c7565b6003546040516001600160a01b038084169216907f8be0079c531659141344cd1fd0a4f28419497f9722a3daafe3b4186f6b6457e090600090a36003805473ffffffffffffffffffffffffffffffffffffffff19166001600160a01b0392909216919091179055565b6001600160a01b0384163b156109105760405163bc197c8160e01b81526001600160a01b0385169063bc197c819061180e9089908990889088908890600401612a2f565b602060405180830381600087803b15801561182857600080fd5b505af1925050508015611858575060408051601f3d908101601f1916820190925261185591810190612776565b60015b61190e57611864612c56565b806308c379a0141561189e5750611879612c6d565b8061188457506118a0565b8060405162461bcd60e51b81526004016103c79190612b11565b505b60405162461bcd60e51b815260206004820152603460248201527f455243313135353a207472616e7366657220746f206e6f6e204552433131353560448201527f526563656976657220696d706c656d656e74657200000000000000000000000060648201526084016103c7565b6001600160e01b0319811663bc197c8160e01b1461167d5760405162461bcd60e51b815260206004820152602860248201527f455243313135353a204552433131353552656365697665722072656a656374656044820152676420746f6b656e7360c01b60648201526084016103c7565b6001600160a01b0384166119df5760405162461bcd60e51b815260206004820152602160248201527f455243313135353a206d696e7420746f20746865207a65726f206164647265736044820152607360f81b60648201526084016103c7565b336119f08160008761154a88612042565b6000848152602081815260408083206001600160a01b038916845290915281208054859290611a20908490612b48565b909155505060408051858152602081018590526001600160a01b0380881692600092918516917fc3d58168c5ae7397731d063d5bbf3d657854427343f4c083240f7aacaa2d0f62910160405180910390a46110c68160008787878761209b565b6001600160a01b038416611ae05760405162461bcd60e51b815260206004820152602160248201527f455243313135353a206d696e7420746f20746865207a65726f206164647265736044820152607360f81b60648201526084016103c7565b8151835114611b425760405162461bcd60e51b815260206004820152602860248201527f455243313135353a2069647320616e6420616d6f756e7473206c656e677468206044820152670dad2e6dac2e8c6d60c31b60648201526084016103c7565b3360005b8451811015611bfa57838181518110611b6f57634e487b7160e01b600052603260045260246000fd5b6020026020010151600080878481518110611b9a57634e487b7160e01b600052603260045260246000fd5b602002602001015181526020019081526020016000206000886001600160a01b03166001600160a01b031681526020019081526020016000206000828254611be29190612b48565b90915550819050611bf281612c0f565b915050611b46565b50846001600160a01b031660006001600160a01b0316826001600160a01b03167f4a39dc06d4c0dbc64b70af90fd698a233a518aa5d07e595d983b8c0526c8f7fb8787604051611c4b929190612ae3565b60405180910390a46110c6816000878787876117ca565b6001600160a01b038316611cc45760405162461bcd60e51b815260206004820152602360248201527f455243313135353a206275726e2066726f6d20746865207a65726f206164647260448201526265737360e81b60648201526084016103c7565b8051825114611d265760405162461bcd60e51b815260206004820152602860248201527f455243313135353a2069647320616e6420616d6f756e7473206c656e677468206044820152670dad2e6dac2e8c6d60c31b60648201526084016103c7565b604080516020810190915260009081905233905b8351811015611e61576000848281518110611d6557634e487b7160e01b600052603260045260246000fd5b602002602001015190506000848381518110611d9157634e487b7160e01b600052603260045260246000fd5b602090810291909101810151600084815280835260408082206001600160a01b038c168352909352919091205490915081811015611e1d5760405162461bcd60e51b8152602060048201526024808201527f455243313135353a206275726e20616d6f756e7420657863656564732062616c604482015263616e636560e01b60648201526084016103c7565b611e278282612b60565b6000938452602084815260408086206001600160a01b038c1687529091529093209290925550819050611e5981612c0f565b915050611d3a565b5060006001600160a01b0316846001600160a01b0316826001600160a01b03167f4a39dc06d4c0dbc64b70af90fd698a233a518aa5d07e595d983b8c0526c8f7fb8686604051611eb2929190612ae3565b60405180910390a450505050565b6001600160a01b038316611f225760405162461bcd60e51b815260206004820152602360248201527f455243313135353a206275726e2066726f6d20746865207a65726f206164647260448201526265737360e81b60648201526084016103c7565b33611f5281856000611f3387612042565b611f3c87612042565b5050604080516020810190915260009052505050565b6000838152602081815260408083206001600160a01b038816845290915290205482811015611fcf5760405162461bcd60e51b8152602060048201526024808201527f455243313135353a206275726e20616d6f756e7420657863656564732062616c604482015263616e636560e01b60648201526084016103c7565b611fd98382612b60565b6000858152602081815260408083206001600160a01b038a811680865291845282852095909555815189815292830188905292938616917fc3d58168c5ae7397731d063d5bbf3d657854427343f4c083240f7aacaa2d0f62910160405180910390a45050505050565b6040805160018082528183019092526060916000919060208083019080368337019050509050828160008151811061208a57634e487b7160e01b600052603260045260246000fd5b602090810291909101015292915050565b6001600160a01b0384163b156109105760405163f23a6e6160e01b81526001600160a01b0385169063f23a6e61906120df9089908990889088908890600401612a8d565b602060405180830381600087803b1580156120f957600080fd5b505af1925050508015612129575060408051601f3d908101601f1916820190925261212691810190612776565b60015b61213557611864612c56565b6001600160e01b0319811663f23a6e6160e01b1461167d5760405162461bcd60e51b815260206004820152602860248201527f455243313135353a204552433131353552656365697665722072656a656374656044820152676420746f6b656e7360c01b60648201526084016103c7565b8280546121b290612ba7565b90600052602060002090601f0160209004810192826121d4576000855561221a565b82601f106121ed57805160ff191683800117855561221a565b8280016001018555821561221a579182015b8281111561221a5782518255916020019190600101906121ff565b5061222692915061222a565b5090565b5b80821115612226576000815560010161222b565b80356001600160a01b038116811461049057600080fd5b600082601f830112612266578081fd5b8135602061227382612b24565b6040516122808282612be2565b8381528281019150858301600585901b8701840188101561229f578586fd5b855b858110156122c4576122b28261223f565b845292840192908401906001016122a1565b5090979650505050505050565b600082601f8301126122e1578081fd5b813560206122ee82612b24565b6040516122fb8282612be2565b8381528281019150858301600585901b8701840188101561231a578586fd5b855b858110156122c45781358452928401929084019060010161231c565b600082601f830112612348578081fd5b813567ffffffffffffffff81111561236257612362612c40565b604051612379601f8301601f191660200182612be2565b81815284602083860101111561238d578283fd5b816020850160208301379081016020019190915292915050565b6000602082840312156123b8578081fd5b6123c18261223f565b9392505050565b600080604083850312156123da578081fd5b6123e38361223f565b91506123f16020840161223f565b90509250929050565b600080600080600060a08688031215612411578081fd5b61241a8661223f565b94506124286020870161223f565b9350604086013567ffffffffffffffff80821115612444578283fd5b61245089838a016122d1565b94506060880135915080821115612465578283fd5b61247189838a016122d1565b93506080880135915080821115612486578283fd5b5061249388828901612338565b9150509295509295909350565b600080600080600060a086880312156124b7578081fd5b6124c08661223f565b94506124ce6020870161223f565b93506040860135925060608601359150608086013567ffffffffffffffff8111156124f7578182fd5b61249388828901612338565b600080600080600060a0868803121561251a578283fd5b6125238661223f565b945060208087013567ffffffffffffffff80821115612540578586fd5b61254c8a838b016122d1565b96506040890135915080821115612561578586fd5b61256d8a838b016122d1565b95506060890135915080821115612582578384fd5b818901915089601f830112612595578384fd5b81356125a081612b24565b6040516125ad8282612be2565b8281528581019150848601875b848110156125e3576125d18f8984358a0101612338565b845292870192908701906001016125ba565b5090975050505060808901359250808311156125fd578384fd5b505061249388828901612338565b6000806040838503121561261d578182fd5b6126268361223f565b91506020830135801515811461263a578182fd5b809150509250929050565b60008060408385031215612657578182fd5b6126608361223f565b946020939093013593505050565b600080600080600060a08688031215612685578283fd5b61268e8661223f565b94506020860135935060408601359250606086013567ffffffffffffffff808211156126b8578283fd5b61247189838a01612338565b600080604083850312156126d6578182fd5b823567ffffffffffffffff808211156126ed578384fd5b6126f986838701612256565b9350602085013591508082111561270e578283fd5b5061271b858286016122d1565b9150509250929050565b60008060408385031215612737578182fd5b823567ffffffffffffffff8082111561274e578384fd5b6126f9868387016122d1565b60006020828403121561276b578081fd5b81356123c181612cff565b600060208284031215612787578081fd5b81516123c181612cff565b6000602082840312156127a3578081fd5b5035919050565b600080604083850312156127bc578182fd5b82359150602083013567ffffffffffffffff8111156127d9578182fd5b61271b85828601612338565b600080600080600060a086880312156127fc578283fd5b8535945060208087013567ffffffffffffffff8082111561281b578586fd5b6128278a838b01612338565b9650604089013591508082111561283c578586fd5b6128488a838b01612256565b9550606089013591508082111561285d578384fd5b6128698a838b016122d1565b9450608089013591508082111561287e578384fd5b508701601f8101891361288f578283fd5b803561289a81612b24565b6040516128a78282612be2565b8281528481019150838501865b848110156128dd576128cb8e888435890101612338565b845292860192908601906001016128b4565b505080955050505050509295509295909350565b60008060408385031215612903578182fd5b50508035926020909101359150565b6000815180845260208085019450808401835b8381101561294157815187529582019590820190600101612925565b509495945050505050565b60008151808452612964816020860160208601612b77565b601f01601f19169290920160200192915050565b6000825161298a818460208701612b77565b9190910192915050565b600080835482600182811c9150808316806129b057607f831692505b60208084108214156129d057634e487b7160e01b87526022600452602487fd5b8180156129e457600181146129f557612a21565b60ff19861689528489019650612a21565b60008a815260209020885b86811015612a195781548b820152908501908301612a00565b505084890196505b509498975050505050505050565b60006001600160a01b03808816835280871660208401525060a06040830152612a5b60a0830186612912565b8281036060840152612a6d8186612912565b90508281036080840152612a81818561294c565b98975050505050505050565b60006001600160a01b03808816835280871660208401525084604083015283606083015260a06080830152612ac560a083018461294c565b979650505050505050565b6000602082526123c16020830184612912565b600060408252612af66040830185612912565b8281036020840152612b088185612912565b95945050505050565b6000602082526123c1602083018461294c565b600067ffffffffffffffff821115612b3e57612b3e612c40565b5060051b60200190565b60008219821115612b5b57612b5b612c2a565b500190565b600082821015612b7257612b72612c2a565b500390565b60005b83811015612b92578181015183820152602001612b7a565b83811115612ba1576000848401525b50505050565b600181811c90821680612bbb57607f821691505b60208210811415612bdc57634e487b7160e01b600052602260045260246000fd5b50919050565b601f8201601f1916810167ffffffffffffffff81118282101715612c0857612c08612c40565b6040525050565b6000600019821415612c2357612c23612c2a565b5060010190565b634e487b7160e01b600052601160045260246000fd5b634e487b7160e01b600052604160045260246000fd5b600060033d11156111b457600481823e5160e01c90565b600060443d1015612c7d576111b4565b6040516003193d81016004833e81513d67ffffffffffffffff8160248401118184111715612caf5750505050506111b4565b8285019150815181811115612cc9575050505050506111b4565b843d8701016020828501011115612ce5575050505050506111b4565b612cf460208286010187612be2565b509094505050505090565b6001600160e01b031981168114612d1557600080fd5b5056fea264697066735822122027fd24b36d8460871013aa66416b2f3737cc0670d42de07ec9dee05e338b37bb64736f6c63430008030033",
  "linkReferences": {},
  "deployedLinkReferences": {}
}